{
  "abi": [
    {
      "type": "function",
      "name": "castVote",
      "inputs": [
        {
          "name": "choiceId",
          "type": "uint8",
          "internalType": "uint8"
        }
      ],
      "outputs": [],
      "stateMutability": "nonpayable"
    },
    {
      "type": "function",
      "name": "hasVoted",
      "inputs": [
        {
          "name": "",
          "type": "address",
          "internalType": "address"
        }
      ],
      "outputs": [
        {
          "name": "",
          "type": "bool",
          "internalType": "bool"
        }
      ],
      "stateMutability": "view"
    },
    {
      "type": "function",
      "name": "option0Votes",
      "inputs": [],
      "outputs": [
        {
          "name": "",
          "type": "uint256",
          "internalType": "uint256"
        }
      ],
      "stateMutability": "view"
    },
    {
      "type": "function",
      "name": "option1Votes",
      "inputs": [],
      "outputs": [
        {
          "name": "",
          "type": "uint256",
          "internalType": "uint256"
        }
      ],
      "stateMutability": "view"
    },
    {
      "type": "function",
      "name": "option2Votes",
      "inputs": [],
      "outputs": [
        {
          "name": "",
          "type": "uint256",
          "internalType": "uint256"
        }
      ],
      "stateMutability": "view"
    }
  ],
  "bytecode": {
    "object": "0x6080604052348015600e575f5ffd5b506105988061001c5f395ff3fe608060405234801561000f575f5ffd5b5060043610610055575f3560e01c806309eef43e146100595780634d2c6c121461008957806394a13541146100a7578063b4de2384146100c3578063eaee1413146100e1575b5f5ffd5b610073600480360381019061006e919061031e565b6100ff565b6040516100809190610363565b60405180910390f35b61009161011c565b60405161009e9190610394565b60405180910390f35b6100c160048036038101906100bc91906103e3565b610122565b005b6100cb6102b5565b6040516100d89190610394565b60405180910390f35b6100e96102bb565b6040516100f69190610394565b60405180910390f35b6003602052805f5260405f205f915054906101000a900460ff1681565b60025481565b5f151560035f3373ffffffffffffffffffffffffffffffffffffffff1673ffffffffffffffffffffffffffffffffffffffff1681526020019081526020015f205f9054906101000a900460ff161515146101b1576040517f08c379a00000000000000000000000000000000000000000000000000000000081526004016101a890610468565b60405180910390fd5b60028160ff1611156101f8576040517f08c379a00000000000000000000000000000000000000000000000000000000081526004016101ef906104d0565b60405180910390fd5b600160035f3373ffffffffffffffffffffffffffffffffffffffff1673ffffffffffffffffffffffffffffffffffffffff1681526020019081526020015f205f6101000a81548160ff0219169083151502179055505f8160ff1603610272575f5f8154809291906102689061051b565b91905055506102b2565b60018160ff16036102995760015f81548092919061028f9061051b565b91905055506102b1565b60025f8154809291906102ab9061051b565b91905055505b5b50565b60015481565b5f5481565b5f5ffd5b5f73ffffffffffffffffffffffffffffffffffffffff82169050919050565b5f6102ed826102c4565b9050919050565b6102fd816102e3565b8114610307575f5ffd5b50565b5f81359050610318816102f4565b92915050565b5f60208284031215610333576103326102c0565b5b5f6103408482850161030a565b91505092915050565b5f8115159050919050565b61035d81610349565b82525050565b5f6020820190506103765f830184610354565b92915050565b5f819050919050565b61038e8161037c565b82525050565b5f6020820190506103a75f830184610385565b92915050565b5f60ff82169050919050565b6103c2816103ad565b81146103cc575f5ffd5b50565b5f813590506103dd816103b9565b92915050565b5f602082840312156103f8576103f76102c0565b5b5f610405848285016103cf565b91505092915050565b5f82825260208201905092915050565b7f4572726f723a20596f75206861766520616c726561647920766f7465642e00005f82015250565b5f610452601e8361040e565b915061045d8261041e565b602082019050919050565b5f6020820190508181035f83015261047f81610446565b9050919050565b7f4572726f723a20496e76616c69642063686f6963652049442e000000000000005f82015250565b5f6104ba60198361040e565b91506104c582610486565b602082019050919050565b5f6020820190508181035f8301526104e7816104ae565b9050919050565b7f4e487b71000000000000000000000000000000000000000000000000000000005f52601160045260245ffd5b5f6105258261037c565b91507fffffffffffffffffffffffffffffffffffffffffffffffffffffffffffffffff8203610557576105566104ee565b5b60018201905091905056fea2646970667358221220a00166cd0832a52442bfa1a4bf48e3e8fcbe837233b1554f5e8d9f0010dc841464736f6c634300081e0033",
    "linkReferences": {}
  },
  "methodIdentifiers": {
    "castVote(uint8)": "94a13541",
    "hasVoted(address)": "09eef43e",
    "option0Votes()": "eaee1413",
    "option1Votes()": "b4de2384",
    "option2Votes()": "4d2c6c12"
  },
  "id": 0
}